{"abi":[{"type":"constructor","inputs":[{"name":"_challengeContract","type":"address","internalType":"address"},{"name":"_threshold","type":"uint96","internalType":"uint96"},{"name":"_withdrawValidators","type":"address[]","internalType":"address[]"}],"stateMutability":"payable"},{"type":"function","name":"NFT_WEIGHT","inputs":[],"outputs":[{"name":"","type":"uint256","internalType":"uint256"}],"stateMutability":"view"},{"type":"function","name":"OWNER_WEIGHT","inputs":[],"outputs":[{"name":"","type":"uint256","internalType":"uint256"}],"stateMutability":"view"},{"type":"function","name":"VALIDATOR_PRICE","inputs":[],"outputs":[{"name":"","type":"uint256","internalType":"uint256"}],"stateMutability":"view"},{"type":"function","name":"adminNftContract","inputs":[],"outputs":[{"name":"","type":"address","internalType":"address"}],"stateMutability":"view"},{"type":"function","name":"bridgeSettingValidators","inputs":[{"name":"","type":"uint256","internalType":"uint256"}],"outputs":[{"name":"","type":"address","internalType":"address"}],"stateMutability":"view"},{"type":"function","name":"challengeContract","inputs":[],"outputs":[{"name":"","type":"address","internalType":"address"}],"stateMutability":"view"},{"type":"function","name":"changeBridgeSettings","inputs":[{"name":"message","type":"bytes","internalType":"bytes"},{"name":"signatures","type":"bytes[]","internalType":"bytes[]"}],"outputs":[],"stateMutability":"nonpayable"},{"type":"function","name":"currentNftId","inputs":[],"outputs":[{"name":"","type":"uint256","internalType":"uint256"}],"stateMutability":"view"},{"type":"function","name":"depositEth","inputs":[{"name":"destinationChain","type":"string","internalType":"string"},{"name":"destinationAddress","type":"address","internalType":"address"}],"outputs":[],"stateMutability":"payable"},{"type":"function","name":"mintAdminNFT","inputs":[],"outputs":[],"stateMutability":"payable"},{"type":"function","name":"onERC1155BatchReceived","inputs":[{"name":"","type":"address","internalType":"address"},{"name":"from","type":"address","internalType":"address"},{"name":"ids","type":"uint256[]","internalType":"uint256[]"},{"name":"","type":"uint256[]","internalType":"uint256[]"},{"name":"","type":"bytes","internalType":"bytes"}],"outputs":[{"name":"","type":"bytes4","internalType":"bytes4"}],"stateMutability":"nonpayable"},{"type":"function","name":"onERC1155Received","inputs":[{"name":"","type":"address","internalType":"address"},{"name":"from","type":"address","internalType":"address"},{"name":"","type":"uint256","internalType":"uint256"},{"name":"","type":"uint256","internalType":"uint256"},{"name":"","type":"bytes","internalType":"bytes"}],"outputs":[{"name":"","type":"bytes4","internalType":"bytes4"}],"stateMutability":"nonpayable"},{"type":"function","name":"owner","inputs":[],"outputs":[{"name":"","type":"address","internalType":"address"}],"stateMutability":"view"},{"type":"function","name":"processedMessages","inputs":[{"name":"","type":"bytes32","internalType":"bytes32"}],"outputs":[{"name":"","type":"bool","internalType":"bool"}],"stateMutability":"view"},{"type":"function","name":"renounceOwnership","inputs":[],"outputs":[],"stateMutability":"nonpayable"},{"type":"function","name":"supportsInterface","inputs":[{"name":"interfaceId","type":"bytes4","internalType":"bytes4"}],"outputs":[{"name":"","type":"bool","internalType":"bool"}],"stateMutability":"view"},{"type":"function","name":"threshold","inputs":[],"outputs":[{"name":"","type":"uint96","internalType":"uint96"}],"stateMutability":"view"},{"type":"function","name":"totalWeight","inputs":[],"outputs":[{"name":"","type":"uint256","internalType":"uint256"}],"stateMutability":"view"},{"type":"function","name":"transferOwnership","inputs":[{"name":"newOwner","type":"address","internalType":"address"}],"outputs":[],"stateMutability":"nonpayable"},{"type":"function","name":"validatorWeights","inputs":[{"name":"","type":"address","internalType":"address"}],"outputs":[{"name":"","type":"uint256","internalType":"uint256"}],"stateMutability":"view"},{"type":"function","name":"verifyChallenge","inputs":[],"outputs":[],"stateMutability":"nonpayable"},{"type":"function","name":"withdrawEth","inputs":[{"name":"messageHash","type":"bytes32","internalType":"bytes32"},{"name":"signatures","type":"bytes[]","internalType":"bytes[]"},{"name":"receiver","type":"address","internalType":"address"},{"name":"amount","type":"uint256","internalType":"uint256"},{"name":"callback","type":"bytes","internalType":"bytes"}],"outputs":[],"stateMutability":"nonpayable"},{"type":"function","name":"withdrawValidators","inputs":[{"name":"","type":"uint256","internalType":"uint256"}],"outputs":[{"name":"","type":"address","internalType":"address"}],"stateMutability":"view"},{"type":"event","name":"AdminNFTMinted","inputs":[{"name":"to","type":"address","indexed":true,"internalType":"address"},{"name":"tokenId","type":"uint256","indexed":false,"internalType":"uint256"}],"anonymous":false},{"type":"event","name":"BridgeUpdated","inputs":[{"name":"challengeContract","type":"address","indexed":true,"internalType":"address"},{"name":"adminNftContract","type":"address","indexed":true,"internalType":"address"},{"name":"threshold","type":"uint256","indexed":false,"internalType":"uint256"}],"anonymous":false},{"type":"event","name":"CrossChainMessage","inputs":[{"name":"amount","type":"uint256","indexed":false,"internalType":"uint256"},{"name":"sender","type":"address","indexed":true,"internalType":"address"},{"name":"destinationChain","type":"string","indexed":false,"internalType":"string"},{"name":"destinationAddress","type":"address","indexed":false,"internalType":"address"}],"anonymous":false},{"type":"event","name":"EthDeposited","inputs":[{"name":"sender","type":"address","indexed":true,"internalType":"address"},{"name":"amount","type":"uint256","indexed":false,"internalType":"uint256"}],"anonymous":false},{"type":"event","name":"EthWithdrawn","inputs":[{"name":"recipient","type":"address","indexed":true,"internalType":"address"},{"name":"success","type":"bool","indexed":false,"internalType":"bool"},{"name":"amount","type":"uint256","indexed":false,"internalType":"uint256"}],"anonymous":false},{"type":"event","name":"OwnershipTransferred","inputs":[{"name":"previousOwner","type":"address","indexed":true,"internalType":"address"},{"name":"newOwner","type":"address","indexed":true,"internalType":"address"}],"anonymous":false}],"bytecode":{"object":"0x60806040526001805560405161454d38038061454d83398101604081905261002691610391565b61002f336101c0565b6001826001600160601b031610156100985760405162461bcd60e51b815260206004820152602160248201527f496e697469616c207468726573686f6c64206d7573742062652061626f7665206044820152603160f81b60648201526084015b60405180910390fd5b60008151116100fa5760405162461bcd60e51b815260206004820152602860248201527f57697468647261772076616c696461746f7273206c6973742063616e6e6f7420604482015267626520656d70747960c01b606482015260840161008f565b600680546001600160a01b0319166001600160a01b0385161790556040513090610123906102d8565b6001600160a01b039091168152602001604051809103906000f08015801561014f573d6000803e3d6000fd5b506001600160a01b0316600160a01b6001600160601b038416021760075580516101809060059060208401906102e5565b50610189610210565b3360009081526002602052604081206127109081905560048054919290916101b2908490610493565b909155506104ba9350505050565b600080546001600160a01b038381166001600160a01b0319831681178455604051919092169283917f8be0079c531659141344cd1fd0a4f28419497f9722a3daafe3b4186f6b6457e09190a35050565b60018054908060006102228285610493565b909155505060075460405163731133e960e01b8152336004820152602481018390526001604482015260806064820152600060848201526001600160a01b039091169063731133e99060a401600060405180830381600087803b15801561028857600080fd5b505af115801561029c573d6000803e3d6000fd5b50506040518381523392507fefab54423f3fd189377576600842339ffb2bd21701c0c7d3ef578af26cb93798915060200160405180910390a250565b6120e58061246883390190565b82805482825590600052602060002090810192821561033a579160200282015b8281111561033a57825182546001600160a01b0319166001600160a01b03909116178255602090920191600190910190610305565b5061034692915061034a565b5090565b5b80821115610346576000815560010161034b565b80516001600160a01b038116811461037657600080fd5b919050565b634e487b7160e01b600052604160045260246000fd5b6000806000606084860312156103a657600080fd5b6103af8461035f565b60208501519093506001600160601b03811681146103cc57600080fd5b60408501519092506001600160401b038111156103e857600080fd5b8401601f810186136103f957600080fd5b80516001600160401b038111156104125761041261037b565b604051600582901b90603f8201601f191681016001600160401b03811182821017156104405761044061037b565b60405291825260208184018101929081018984111561045e57600080fd5b6020850194505b83851015610484576104768561035f565b815260209485019401610465565b50809450505050509250925092565b808201808211156104b457634e487b7160e01b600052601160045260246000fd5b92915050565b611f9f806104c96000396000f3fe6080604052600436106101405760003560e01c806374ab6244116100b6578063bc197c811161006f578063bc197c8114610389578063ca365c23146103c2578063cf1944ad146103d8578063f23a6e61146103ee578063f2fde38b1461040e578063ffe67bf41461042e57600080fd5b806374ab6244146102c55780637923d17b146102e557806388ba16ab146103055780638da5cb5b146103355780638f51b7661461035357806396c82e571461037357600080fd5b806342cde4e81161010857806342cde4e8146101fc578063438031c31461023b5780634547d1711461027357806362266e421461029357806365d0720f1461029b578063715018a6146102b057600080fd5b806301992c8f1461014557806301ffc9a714610175578063020b4296146101a557806303d342e2146101d257806316de4710146101e7575b600080fd5b34801561015157600080fd5b50610162683635c9adc5dea0000081565b6040519081526020015b60405180910390f35b34801561018157600080fd5b50610195610190366004611866565b61044e565b604051901515815260200161016c565b3480156101b157600080fd5b506101626101c03660046118bc565b60026020526000908152604090205481565b6101e56101e03660046118ef565b610485565b005b3480156101f357600080fd5b506101e5610558565b34801561020857600080fd5b5060075461022390600160a01b90046001600160601b031681565b6040516001600160601b03909116815260200161016c565b34801561024757600080fd5b5060065461025b906001600160a01b031681565b6040516001600160a01b03909116815260200161016c565b34801561027f57600080fd5b5060075461025b906001600160a01b031681565b6101e56107a5565b3480156102a757600080fd5b50610162603281565b3480156102bc57600080fd5b506101e56107fe565b3480156102d157600080fd5b506101e56102e0366004611a3b565b610810565b3480156102f157600080fd5b5061025b610300366004611ad4565b610bd6565b34801561031157600080fd5b50610195610320366004611ad4565b60086020526000908152604090205460ff1681565b34801561034157600080fd5b506000546001600160a01b031661025b565b34801561035f57600080fd5b5061025b61036e366004611ad4565b610c00565b34801561037f57600080fd5b5061016260045481565b34801561039557600080fd5b506103a96103a4366004611aed565b610c10565b6040516001600160e01b0319909116815260200161016c565b3480156103ce57600080fd5b5061016261271081565b3480156103e457600080fd5b5061016260015481565b3480156103fa57600080fd5b506103a9610409366004611bb5565b610d5b565b34801561041a57600080fd5b506101e56104293660046118bc565b610e6f565b34801561043a57600080fd5b506101e5610449366004611c30565b610ee8565b60006001600160e01b03198216630271189760e51b148061047f57506301ffc9a760e01b6001600160e01b03198316145b92915050565b600034116104da5760405162461bcd60e51b815260206004820181905260248201527f416d6f756e74206d7573742062652067726561746572207468616e207a65726f60448201526064015b60405180910390fd5b336001600160a01b03167f64e5f29f9c4d49466fd300ea6338c5ad3a9eea347ed61e26be9b637b609bb91534848460405161051793929190611cc3565b60405180910390a260405134815233907f66ff7c8f71ccc7c36152a41920d0d3b46ef3034359f76aa1498ed4478c204b5c9060200160405180910390a25050565b60065460408051600481526024810182526020810180516001600160e01b0316630fc0411b60e11b179052905160009283926001600160a01b03909116916105a09190611d0e565b6000604051808303816000865af19150503d80600081146105dd576040519150601f19603f3d011682016040523d82523d6000602084013e6105e2565b606091505b5091509150816106045760405162461bcd60e51b81526004016104d190611d2a565b60008060008380602001905181019061061d9190611d7b565b925092509250826106655760405162461bcd60e51b815260206004820152601260248201527114dd1859d9480c481b9bdd081cdbdb1d995960721b60448201526064016104d1565b816106a75760405162461bcd60e51b815260206004820152601260248201527114dd1859d9480c881b9bdd081cdbdb1d995960721b60448201526064016104d1565b806106e95760405162461bcd60e51b815260206004820152601260248201527114dd1859d9480cc81b9bdd081cdbdb1d995960721b60448201526064016104d1565b6006546040513360248201526001600160a01b039091169060440160408051601f198184030181529181526020820180516001600160e01b03166334146f5560e11b179052516107399190611d0e565b6000604051808303816000865af19150503d8060008114610776576040519150601f19603f3d011682016040523d82523d6000602084013e61077b565b606091505b5050809550508461079e5760405162461bcd60e51b81526004016104d190611d2a565b5050505050565b683635c9adc5dea0000034146107f45760405162461bcd60e51b8152602060048201526014602482015273125b98dbdc9c9958dd081d985b1d59481cd95b9d60621b60448201526064016104d1565b6107fc611182565b565b61080661124a565b6107fc60006112a4565b3360009081526002602052604090205461083c5760405162461bcd60e51b81526004016104d190611dbe565b6000831161088c5760405162461bcd60e51b815260206004820181905260248201527f416d6f756e74206d7573742062652067726561746572207468616e207a65726f60448201526064016104d1565b60008781526008602052604090205460ff16156108eb5760405162461bcd60e51b815260206004820152601960248201527f4d65737361676520616c72656164792070726f6365737365640000000000000060448201526064016104d1565b60008060005b87811015610a8f5760006109688a8a8481811061091057610910611e06565b90506020028101906109229190611e1c565b8080601f01602080910402602001604051908101604052809392919081815260200183838082843760009201919091525061096292508f91506112f49050565b90611348565b90506109738161136c565b826001600160a01b0316816001600160a01b0316036109c65760405162461bcd60e51b815260206004820152600f60248201526e2932b832b0ba32b21039b4b3b732b960891b60448201526064016104d1565b6005546109d2906113b4565b6000805b600554811015610a2857826001600160a01b0316600582815481106109fd576109fd611e06565b6000918252602090912001546001600160a01b031603610a205760019150610a28565b6001016109d6565b5080610a765760405162461bcd60e51b815260206004820152601a60248201527f496e76616c69642077697468647261772076616c696461746f7200000000000060448201526064016104d1565b610a81600186611e62565b9450909250506001016108f1565b50600754600160a01b90046001600160601b0316821015610b045760405162461bcd60e51b815260206004820152602960248201527f496e73756666696369656e742077656967687420746f2070726f6365737320776044820152681a5d1a191c985dd85b60ba1b60648201526084016104d1565b6000898152600860205260409020805460ff1916600117905547851115610b29574794505b6000866001600160a01b0316868686604051610b46929190611e83565b60006040518083038185875af1925050503d8060008114610b83576040519150601f19603f3d011682016040523d82523d6000602084013e610b88565b606091505b50506040805182151581526020810189905291925033917f036adeadb4d680c84bfbc581774449f432bd4061bed977099e3c595cbf6ffb2f910160405180910390a250505050505050505050565b60058181548110610be657600080fd5b6000918252602090912001546001600160a01b0316905081565b60038181548110610be657600080fd5b6007546000906001600160a01b03163314610c5e5760405162461bcd60e51b815260206004820152600e60248201526d13db9b1e4810591b5a5b8813919560921b60448201526064016104d1565b60006001871115610c8f5760005b87811015610c8957610c7f603283611e62565b9150600101610c6c565b50610c93565b5060325b6001600160a01b03891660009081526002602052604081208054839290610cbb908490611e62565b925050819055508060046000828254610cd49190611e62565b90915550506001600160a01b038916600090815260026020526040902054819003610d4557600380546001810182556000919091527fc2575a0e9e593c00f959f8c92f12db2869c3395a3b0502d05e2516446f71f85b0180546001600160a01b0319166001600160a01b038b161790555b5063bc197c8160e01b9998505050505050505050565b6007546000906001600160a01b03163314610da95760405162461bcd60e51b815260206004820152600e60248201526d13db9b1e4810591b5a5b8813919560921b60448201526064016104d1565b6001600160a01b0386166000908152600260205260408120549003610e1457600380546001810182556000919091527fc2575a0e9e593c00f959f8c92f12db2869c3395a3b0502d05e2516446f71f85b0180546001600160a01b0319166001600160a01b0388161790555b6001600160a01b0386166000908152600260205260408120805460329290610e3d908490611e62565b92505081905550603260046000828254610e579190611e62565b9091555063f23a6e6160e01b98975050505050505050565b610e7761124a565b6001600160a01b038116610edc5760405162461bcd60e51b815260206004820152602660248201527f4f776e61626c653a206e6577206f776e657220697320746865207a65726f206160448201526564647265737360d01b60648201526084016104d1565b610ee5816112a4565b50565b33600090815260026020526040902054610f145760405162461bcd60e51b81526004016104d190611dbe565b600080808080805b86811015611072576000610fcf898984818110610f3b57610f3b611e06565b9050602002810190610f4d9190611e1c565b8080601f016020809104026020016040519081016040528093929190818152602001838380828437600081840152601f19601f820116905080830192505050505050506109628d8d8080601f0160208091040260200160405190810160405280939291908181526020018383808284376000920191909152506113f992505050565b9050856001600160a01b0316816001600160a01b0316036110245760405162461bcd60e51b815260206004820152600f60248201526e2932b832b0ba32b21039b4b3b732b960891b60448201526064016104d1565b6001600160a01b03811660009081526002602052604090205415611068576001600160a01b0381166000908152600260205260409020546110659088611e62565b96505b9450600101610f1c565b5060026004546110829190611e93565b8510156110e05760405162461bcd60e51b815260206004820152602660248201527f496e73756666696369656e742077656967687420746f206368616e67652073656044820152657474696e677360d01b60648201526084016104d1565b88886040516020016110f3929190611e83565b6040516020818303038152906040528060200190518101906111159190611eb5565b919450925090506001811161116c5760405162461bcd60e51b815260206004820152601d60248201527f4e6577207468726573686f6c64206d7573742062652061626f7665203100000060448201526064016104d1565b611177838383611417565b505050505050505050565b60018054908060006111948285611e62565b909155505060075460405163731133e960e01b8152336004820152602481018390526001604482015260806064820152600060848201526001600160a01b039091169063731133e99060a401600060405180830381600087803b1580156111fa57600080fd5b505af115801561120e573d6000803e3d6000fd5b50506040518381523392507fefab54423f3fd189377576600842339ffb2bd21701c0c7d3ef578af26cb93798915060200160405180910390a250565b6000546001600160a01b031633146107fc5760405162461bcd60e51b815260206004820181905260248201527f4f776e61626c653a2063616c6c6572206973206e6f7420746865206f776e657260448201526064016104d1565b600080546001600160a01b038381166001600160a01b0319831681178455604051919092169283917f8be0079c531659141344cd1fd0a4f28419497f9722a3daafe3b4186f6b6457e09190a35050565b6040517f19457468657265756d205369676e6564204d6573736167653a0a3332000000006020820152603c8101829052600090605c015b604051602081830303815290604052805190602001209050919050565b60008060006113578585611488565b91509150611364816114cd565b509392505050565b6040516001600160a01b0382166024820152610ee59060440160408051601f198184030181529190526020810180516001600160e01b031663161765e160e11b179052611617565b610ee5816040516024016113ca91815260200190565b60408051601f198184030181529190526020810180516001600160e01b031663f5b1bba960e01b179052611617565b60006114058251611638565b8260405160200161132b929190611ef8565b600680546001600160a01b038581166001600160a01b031990921682179092556001600160601b038316600160a01b029184169182176007556040518381527f09a236a5660c35016f4bd362872bd6aeac5cb43bee52799fd638945c684e25ed9060200160405180910390a3505050565b60008082516041036114be5760208301516040840151606085015160001a6114b2878285856116ca565b945094505050506114c6565b506000905060025b9250929050565b60008160048111156114e1576114e1611f53565b036114e95750565b60018160048111156114fd576114fd611f53565b0361154a5760405162461bcd60e51b815260206004820152601860248201527f45434453413a20696e76616c6964207369676e6174757265000000000000000060448201526064016104d1565b600281600481111561155e5761155e611f53565b036115ab5760405162461bcd60e51b815260206004820152601f60248201527f45434453413a20696e76616c6964207369676e6174757265206c656e6774680060448201526064016104d1565b60038160048111156115bf576115bf611f53565b03610ee55760405162461bcd60e51b815260206004820152602260248201527f45434453413a20696e76616c6964207369676e6174757265202773272076616c604482015261756560f01b60648201526084016104d1565b80516a636f6e736f6c652e6c6f67602083016000808483855afa5050505050565b606060006116458361178e565b60010190506000816001600160401b03811115611664576116646118d9565b6040519080825280601f01601f19166020018201604052801561168e576020820181803683370190505b5090508181016020015b600019016f181899199a1a9b1b9c1cb0b131b232b360811b600a86061a8153600a850494508461169857509392505050565b6000807f7fffffffffffffffffffffffffffffff5d576e7357a4501ddfe92f46681b20a08311156117015750600090506003611785565b6040805160008082526020820180845289905260ff881692820192909252606081018690526080810185905260019060a0016020604051602081039080840390855afa158015611755573d6000803e3d6000fd5b5050604051601f1901519150506001600160a01b03811661177e57600060019250925050611785565b9150600090505b94509492505050565b60008072184f03e93ff9f4daa797ed6e38ed64bf6a1f0160401b83106117cd5772184f03e93ff9f4daa797ed6e38ed64bf6a1f0160401b830492506040015b6d04ee2d6d415b85acef810000000083106117f9576d04ee2d6d415b85acef8100000000830492506020015b662386f26fc10000831061181757662386f26fc10000830492506010015b6305f5e100831061182f576305f5e100830492506008015b612710831061184357612710830492506004015b60648310611855576064830492506002015b600a831061047f5760010192915050565b60006020828403121561187857600080fd5b81356001600160e01b03198116811461189057600080fd5b9392505050565b6001600160a01b0381168114610ee557600080fd5b80356118b781611897565b919050565b6000602082840312156118ce57600080fd5b813561189081611897565b634e487b7160e01b600052604160045260246000fd5b6000806040838503121561190257600080fd5b82356001600160401b0381111561191857600080fd5b8301601f8101851361192957600080fd5b80356001600160401b03811115611942576119426118d9565b604051601f8201601f19908116603f011681016001600160401b0381118282101715611970576119706118d9565b60405281815282820160200187101561198857600080fd5b816020840160208301376000602083830101528094505050506119ad602084016118ac565b90509250929050565b60008083601f8401126119c857600080fd5b5081356001600160401b038111156119df57600080fd5b6020830191508360208260051b85010111156114c657600080fd5b60008083601f840112611a0c57600080fd5b5081356001600160401b03811115611a2357600080fd5b6020830191508360208285010111156114c657600080fd5b600080600080600080600060a0888a031215611a5657600080fd5b8735965060208801356001600160401b03811115611a7357600080fd5b611a7f8a828b016119b6565b9097509550506040880135611a9381611897565b93506060880135925060808801356001600160401b03811115611ab557600080fd5b611ac18a828b016119fa565b989b979a50959850939692959293505050565b600060208284031215611ae657600080fd5b5035919050565b60008060008060008060008060a0898b031215611b0957600080fd5b8835611b1481611897565b97506020890135611b2481611897565b965060408901356001600160401b03811115611b3f57600080fd5b611b4b8b828c016119b6565b90975095505060608901356001600160401b03811115611b6a57600080fd5b611b768b828c016119b6565b90955093505060808901356001600160401b03811115611b9557600080fd5b611ba18b828c016119fa565b999c989b5096995094979396929594505050565b60008060008060008060a08789031215611bce57600080fd5b8635611bd981611897565b95506020870135611be981611897565b9450604087013593506060870135925060808701356001600160401b03811115611c1257600080fd5b611c1e89828a016119fa565b979a9699509497509295939492505050565b60008060008060408587031215611c4657600080fd5b84356001600160401b03811115611c5c57600080fd5b611c68878288016119fa565b90955093505060208501356001600160401b03811115611c8757600080fd5b611c93878288016119b6565b95989497509550505050565b60005b83811015611cba578181015183820152602001611ca2565b50506000910152565b8381526060602082015260008351806060840152611ce8816080850160208801611c9f565b6001600160a01b0393909316604083015250601f91909101601f19160160800192915050565b60008251611d20818460208701611c9f565b9190910192915050565b60208082526021908201527f4661696c656420746f2063616c6c206368616c6c656e676520636f6e747261636040820152601d60fa1b606082015260800190565b805180151581146118b757600080fd5b600080600060608486031215611d9057600080fd5b611d9984611d6b565b9250611da760208501611d6b565b9150611db560408501611d6b565b90509250925092565b60208082526028908201527f43616c6c6572206973206e6f742061206272696467652073657474696e67207660408201526730b634b230ba37b960c11b606082015260800190565b634e487b7160e01b600052603260045260246000fd5b6000808335601e19843603018112611e3357600080fd5b8301803591506001600160401b03821115611e4d57600080fd5b6020019150368190038213156114c657600080fd5b8082018082111561047f57634e487b7160e01b600052601160045260246000fd5b8183823760009101908152919050565b600082611eb057634e487b7160e01b600052601260045260246000fd5b500490565b600080600060608486031215611eca57600080fd5b8351611ed581611897565b6020850151909350611ee681611897565b80925050604084015190509250925092565b7f19457468657265756d205369676e6564204d6573736167653a0a000000000000815260008351611f3081601a850160208801611c9f565b835190830190611f4781601a840160208801611c9f565b01601a01949350505050565b634e487b7160e01b600052602160045260246000fdfea26469706673582212209fdd3b4754262f8ee6e9b2d4749f66c5b75735c59696d3d168e8738939d6ac3164736f6c634300081c0033608060405234801561001057600080fd5b506040516120e53803806120e583398101604081905261002f916100d8565b60408051602081019091526000815261004781610076565b5061005133610086565b600480546001600160a01b0319166001600160a01b0392909216919091179055610265565b600261008282826101a7565b5050565b600380546001600160a01b038381166001600160a01b0319831681179093556040519116919082907f8be0079c531659141344cd1fd0a4f28419497f9722a3daafe3b4186f6b6457e090600090a35050565b6000602082840312156100ea57600080fd5b81516001600160a01b038116811461010157600080fd5b9392505050565b634e487b7160e01b600052604160045260246000fd5b600181811c9082168061013257607f821691505b60208210810361015257634e487b7160e01b600052602260045260246000fd5b50919050565b601f8211156101a257806000526020600020601f840160051c8101602085101561017f5750805b601f840160051c820191505b8181101561019f576000815560010161018b565b50505b505050565b81516001600160401b038111156101c0576101c0610108565b6101d4816101ce845461011e565b84610158565b6020601f82116001811461020857600083156101f05750848201515b600019600385901b1c1916600184901b17845561019f565b600084815260208120601f198516915b828110156102385787850151825560209485019460019092019101610218565b50848210156102565786840151600019600387901b60f8161c191681555b50505050600190811b01905550565b611e71806102746000396000f3fe608060405234801561001057600080fd5b506004361061010a5760003560e01c8063715018a6116100a2578063cd59658311610071578063cd59658314610239578063e985e9c51461024c578063f242432a14610288578063f2fde38b1461029b578063f5298aca146102ae57600080fd5b8063715018a6146101e6578063731133e9146101ee5780638da5cb5b14610201578063a22cb4651461022657600080fd5b80631f7fdffa116100de5780631f7fdffa1461018d5780632eb2c2d6146101a05780634e1273f4146101b35780636b20c454146101d357600080fd5b8062fdd58e1461010f57806301ffc9a7146101355780630b26cf66146101585780630e89341c1461016d575b600080fd5b61012261011d366004611362565b6102c1565b6040519081526020015b60405180910390f35b6101486101433660046113a2565b61035a565b604051901515815260200161012c565b61016b6101663660046113c6565b6103aa565b005b61018061017b3660046113e1565b610439565b60405161012c9190611440565b61016b61019b36600461159f565b6104cd565b61016b6101ae366004611641565b610509565b6101c66101c13660046116f4565b610555565b60405161012c9190611803565b61016b6101e1366004611816565b610676565b61016b6106b0565b61016b6101fc36600461188d565b6106c4565b6003546001600160a01b03165b6040516001600160a01b03909116815260200161012c565b61016b6102343660046118d5565b6106fa565b60045461020e906001600160a01b031681565b61014861025a366004611911565b6001600160a01b03918216600090815260016020908152604080832093909416825291909152205460ff1690565b61016b610296366004611944565b610709565b61016b6102a93660046113c6565b61074e565b61016b6102bc36600461199c565b6107c7565b60006001600160a01b0383166103315760405162461bcd60e51b815260206004820152602a60248201527f455243313135353a2061646472657373207a65726f206973206e6f742061207660448201526930b634b21037bbb732b960b11b60648201526084015b60405180910390fd5b506000818152602081815260408083206001600160a01b03861684529091529020545b92915050565b60006001600160e01b03198216636cdb3d1360e11b148061038b57506001600160e01b031982166303a24d0760e21b145b8061035457506301ffc9a760e01b6001600160e01b0319831614610354565b6103b26107fc565b6001600160a01b0381166104175760405162461bcd60e51b815260206004820152602660248201527f42726964676520636f6e747261637420616464726573732063616e6e6f74206260448201526565207a65726f60d01b6064820152608401610328565b600480546001600160a01b0319166001600160a01b0392909216919091179055565b606060028054610448906119cf565b80601f0160208091040260200160405190810160405280929190818152602001828054610474906119cf565b80156104c15780601f10610496576101008083540402835291602001916104c1565b820191906000526020600020905b8154815290600101906020018083116104a457829003601f168201915b50505050509050919050565b6004546001600160a01b031633146104f75760405162461bcd60e51b815260040161032890611a09565b61050384848484610856565b50505050565b6001600160a01b0385163314806105255750610525853361025a565b6105415760405162461bcd60e51b815260040161032890611a4a565b61054e8585858585610996565b5050505050565b606081518351146105ba5760405162461bcd60e51b815260206004820152602960248201527f455243313135353a206163636f756e747320616e6420696473206c656e677468604482015268040dad2e6dac2e8c6d60bb1b6064820152608401610328565b600083516001600160401b038111156105d5576105d5611453565b6040519080825280602002602001820160405280156105fe578160200160208202803683370190505b50905060005b845181101561066e5761064985828151811061062257610622611a98565b602002602001015185838151811061063c5761063c611a98565b60200260200101516102c1565b82828151811061065b5761065b611a98565b6020908102919091010152600101610604565b509392505050565b6004546001600160a01b031633146106a05760405162461bcd60e51b815260040161032890611a09565b6106ab838383610b2b565b505050565b6106b86107fc565b6106c26000610cab565b565b6004546001600160a01b031633146106ee5760405162461bcd60e51b815260040161032890611a09565b61050384848484610cfd565b610705338383610dd7565b5050565b6001600160a01b0385163314806107255750610725853361025a565b6107415760405162461bcd60e51b815260040161032890611a4a565b61054e8585858585610eb7565b6107566107fc565b6001600160a01b0381166107bb5760405162461bcd60e51b815260206004820152602660248201527f4f776e61626c653a206e6577206f776e657220697320746865207a65726f206160448201526564647265737360d01b6064820152608401610328565b6107c481610cab565b50565b6004546001600160a01b031633146107f15760405162461bcd60e51b815260040161032890611a09565b6106ab838383610fe1565b6003546001600160a01b031633146106c25760405162461bcd60e51b815260206004820181905260248201527f4f776e61626c653a2063616c6c6572206973206e6f7420746865206f776e65726044820152606401610328565b6001600160a01b03841661087c5760405162461bcd60e51b815260040161032890611aae565b815183511461089d5760405162461bcd60e51b815260040161032890611aef565b3360005b845181101561092e578381815181106108bc576108bc611a98565b60200260200101516000808784815181106108d9576108d9611a98565b602002602001015181526020019081526020016000206000886001600160a01b03166001600160a01b0316815260200190815260200160002060008282546109219190611b37565b90915550506001016108a1565b50846001600160a01b031660006001600160a01b0316826001600160a01b03167f4a39dc06d4c0dbc64b70af90fd698a233a518aa5d07e595d983b8c0526c8f7fb878760405161097f929190611b58565b60405180910390a461054e816000878787876110e5565b81518351146109b75760405162461bcd60e51b815260040161032890611aef565b6001600160a01b0384166109dd5760405162461bcd60e51b815260040161032890611b86565b3360005b8451811015610abd5760008582815181106109fe576109fe611a98565b602002602001015190506000858381518110610a1c57610a1c611a98565b602090810291909101810151600084815280835260408082206001600160a01b038e168352909352919091205490915081811015610a6c5760405162461bcd60e51b815260040161032890611bcb565b6000838152602081815260408083206001600160a01b038e8116855292528083208585039055908b16825281208054849290610aa9908490611b37565b9091555050600190930192506109e1915050565b50846001600160a01b0316866001600160a01b0316826001600160a01b03167f4a39dc06d4c0dbc64b70af90fd698a233a518aa5d07e595d983b8c0526c8f7fb8787604051610b0d929190611b58565b60405180910390a4610b238187878787876110e5565b505050505050565b6001600160a01b038316610b515760405162461bcd60e51b815260040161032890611c15565b8051825114610b725760405162461bcd60e51b815260040161032890611aef565b604080516020810190915260009081905233905b8351811015610c3e576000848281518110610ba357610ba3611a98565b602002602001015190506000848381518110610bc157610bc1611a98565b602090810291909101810151600084815280835260408082206001600160a01b038c168352909352919091205490915081811015610c115760405162461bcd60e51b815260040161032890611c58565b6000928352602083815260408085206001600160a01b038b16865290915290922091039055600101610b86565b5060006001600160a01b0316846001600160a01b0316826001600160a01b03167f4a39dc06d4c0dbc64b70af90fd698a233a518aa5d07e595d983b8c0526c8f7fb8686604051610c8f929190611b58565b60405180910390a4604080516020810190915260009052610503565b600380546001600160a01b038381166001600160a01b0319831681179093556040519116919082907f8be0079c531659141344cd1fd0a4f28419497f9722a3daafe3b4186f6b6457e090600090a35050565b6001600160a01b038416610d235760405162461bcd60e51b815260040161032890611aae565b336000610d2f85611240565b90506000610d3c85611240565b90506000868152602081815260408083206001600160a01b038b16845290915281208054879290610d6e908490611b37565b909155505060408051878152602081018790526001600160a01b03808a1692600092918716917fc3d58168c5ae7397731d063d5bbf3d657854427343f4c083240f7aacaa2d0f62910160405180910390a4610dce8360008989898961128b565b50505050505050565b816001600160a01b0316836001600160a01b031603610e4a5760405162461bcd60e51b815260206004820152602960248201527f455243313135353a2073657474696e6720617070726f76616c20737461747573604482015268103337b91039b2b63360b91b6064820152608401610328565b6001600160a01b03838116600081815260016020908152604080832094871680845294825291829020805460ff191686151590811790915591519182527f17307eab39ab6107e8899845ad3d59bd9653f200f220920489ca2b5937696c31910160405180910390a3505050565b6001600160a01b038416610edd5760405162461bcd60e51b815260040161032890611b86565b336000610ee985611240565b90506000610ef685611240565b90506000868152602081815260408083206001600160a01b038c16845290915290205485811015610f395760405162461bcd60e51b815260040161032890611bcb565b6000878152602081815260408083206001600160a01b038d8116855292528083208985039055908a16825281208054889290610f76908490611b37565b909155505060408051888152602081018890526001600160a01b03808b16928c821692918816917fc3d58168c5ae7397731d063d5bbf3d657854427343f4c083240f7aacaa2d0f62910160405180910390a4610fd6848a8a8a8a8a61128b565b505050505050505050565b6001600160a01b0383166110075760405162461bcd60e51b815260040161032890611c15565b33600061101384611240565b9050600061102084611240565b60408051602080820183526000918290528882528181528282206001600160a01b038b168352905220549091508481101561106d5760405162461bcd60e51b815260040161032890611c58565b6000868152602081815260408083206001600160a01b038b81168086529184528285208a8703905582518b81529384018a90529092908816917fc3d58168c5ae7397731d063d5bbf3d657854427343f4c083240f7aacaa2d0f62910160405180910390a4604080516020810190915260009052610dce565b6001600160a01b0384163b15610b235760405163bc197c8160e01b81526001600160a01b0385169063bc197c81906111299089908990889088908890600401611c9c565b6020604051808303816000875af1925050508015611164575060408051601f3d908101601f1916820190925261116191810190611cfa565b60015b61121057611170611d17565b806308c379a0036111a95750611184611d33565b8061118f57506111ab565b8060405162461bcd60e51b81526004016103289190611440565b505b60405162461bcd60e51b815260206004820152603460248201527f455243313135353a207472616e7366657220746f206e6f6e2d455243313135356044820152732932b1b2b4bb32b91034b6b83632b6b2b73a32b960611b6064820152608401610328565b6001600160e01b0319811663bc197c8160e01b14610dce5760405162461bcd60e51b815260040161032890611dae565b6040805160018082528183019092526060916000919060208083019080368337019050509050828160008151811061127a5761127a611a98565b602090810291909101015292915050565b6001600160a01b0384163b15610b235760405163f23a6e6160e01b81526001600160a01b0385169063f23a6e61906112cf9089908990889088908890600401611df6565b6020604051808303816000875af192505050801561130a575060408051601f3d908101601f1916820190925261130791810190611cfa565b60015b61131657611170611d17565b6001600160e01b0319811663f23a6e6160e01b14610dce5760405162461bcd60e51b815260040161032890611dae565b80356001600160a01b038116811461135d57600080fd5b919050565b6000806040838503121561137557600080fd5b61137e83611346565b946020939093013593505050565b6001600160e01b0319811681146107c457600080fd5b6000602082840312156113b457600080fd5b81356113bf8161138c565b9392505050565b6000602082840312156113d857600080fd5b6113bf82611346565b6000602082840312156113f357600080fd5b5035919050565b6000815180845260005b8181101561142057602081850181015186830182015201611404565b506000602082860101526020601f19601f83011685010191505092915050565b6020815260006113bf60208301846113fa565b634e487b7160e01b600052604160045260246000fd5b601f8201601f191681016001600160401b038111828210171561148e5761148e611453565b6040525050565b60006001600160401b038211156114ae576114ae611453565b5060051b60200190565b600082601f8301126114c957600080fd5b81356114d481611495565b6040516114e18282611469565b80915082815260208101915060208360051b86010192508583111561150557600080fd5b602085015b8381101561152257803583526020928301920161150a565b5095945050505050565b600082601f83011261153d57600080fd5b81356001600160401b0381111561155657611556611453565b60405161156d601f8301601f191660200182611469565b81815284602083860101111561158257600080fd5b816020850160208301376000918101602001919091529392505050565b600080600080608085870312156115b557600080fd5b6115be85611346565b935060208501356001600160401b038111156115d957600080fd5b6115e5878288016114b8565b93505060408501356001600160401b0381111561160157600080fd5b61160d878288016114b8565b92505060608501356001600160401b0381111561162957600080fd5b6116358782880161152c565b91505092959194509250565b600080600080600060a0868803121561165957600080fd5b61166286611346565b945061167060208701611346565b935060408601356001600160401b0381111561168b57600080fd5b611697888289016114b8565b93505060608601356001600160401b038111156116b357600080fd5b6116bf888289016114b8565b92505060808601356001600160401b038111156116db57600080fd5b6116e78882890161152c565b9150509295509295909350565b6000806040838503121561170757600080fd5b82356001600160401b0381111561171d57600080fd5b8301601f8101851361172e57600080fd5b803561173981611495565b6040516117468282611469565b80915082815260208101915060208360051b85010192508783111561176a57600080fd5b6020840193505b828410156117935761178284611346565b825260209384019390910190611771565b945050505060208301356001600160401b038111156117b157600080fd5b6117bd858286016114b8565b9150509250929050565b600081518084526020840193506020830160005b828110156117f95781518652602095860195909101906001016117db565b5093949350505050565b6020815260006113bf60208301846117c7565b60008060006060848603121561182b57600080fd5b61183484611346565b925060208401356001600160401b0381111561184f57600080fd5b61185b868287016114b8565b92505060408401356001600160401b0381111561187757600080fd5b611883868287016114b8565b9150509250925092565b600080600080608085870312156118a357600080fd5b6118ac85611346565b9350602085013592506040850135915060608501356001600160401b0381111561162957600080fd5b600080604083850312156118e857600080fd5b6118f183611346565b91506020830135801515811461190657600080fd5b809150509250929050565b6000806040838503121561192457600080fd5b61192d83611346565b915061193b60208401611346565b90509250929050565b600080600080600060a0868803121561195c57600080fd5b61196586611346565b945061197360208701611346565b9350604086013592506060860135915060808601356001600160401b038111156116db57600080fd5b6000806000606084860312156119b157600080fd5b6119ba84611346565b95602085013595506040909401359392505050565b600181811c908216806119e357607f821691505b602082108103611a0357634e487b7160e01b600052602260045260246000fd5b50919050565b60208082526021908201527f43616c6c6572206973206e6f74207468652062726964676520636f6e747261636040820152601d60fa1b606082015260800190565b6020808252602e908201527f455243313135353a2063616c6c6572206973206e6f7420746f6b656e206f776e60408201526d195c881bdc88185c1c1c9bdd995960921b606082015260800190565b634e487b7160e01b600052603260045260246000fd5b60208082526021908201527f455243313135353a206d696e7420746f20746865207a65726f206164647265736040820152607360f81b606082015260800190565b60208082526028908201527f455243313135353a2069647320616e6420616d6f756e7473206c656e677468206040820152670dad2e6dac2e8c6d60c31b606082015260800190565b8082018082111561035457634e487b7160e01b600052601160045260246000fd5b604081526000611b6b60408301856117c7565b8281036020840152611b7d81856117c7565b95945050505050565b60208082526025908201527f455243313135353a207472616e7366657220746f20746865207a65726f206164604082015264647265737360d81b606082015260800190565b6020808252602a908201527f455243313135353a20696e73756666696369656e742062616c616e636520666f60408201526939103a3930b739b332b960b11b606082015260800190565b60208082526023908201527f455243313135353a206275726e2066726f6d20746865207a65726f206164647260408201526265737360e81b606082015260800190565b60208082526024908201527f455243313135353a206275726e20616d6f756e7420657863656564732062616c604082015263616e636560e01b606082015260800190565b6001600160a01b0386811682528516602082015260a060408201819052600090611cc8908301866117c7565b8281036060840152611cda81866117c7565b90508281036080840152611cee81856113fa565b98975050505050505050565b600060208284031215611d0c57600080fd5b81516113bf8161138c565b600060033d1115611d305760046000803e5060005160e01c5b90565b600060443d1015611d415790565b6040513d600319016004823e80513d60248201116001600160401b0382111715611d6a57505090565b80820180516001600160401b03811115611d85575050505090565b3d8401600319018282016020011115611d9f575050505090565b61066e60208285010185611469565b60208082526028908201527f455243313135353a204552433131353552656365697665722072656a656374656040820152676420746f6b656e7360c01b606082015260800190565b6001600160a01b03868116825285166020820152604081018490526060810183905260a060808201819052600090611e30908301846113fa565b97965050505050505056fea2646970667358221220bd4bd3582c33ae4880459eb40598965cd3e8a68eae1cf6772ed716f88803d64d64736f6c634300081c0033","linkReferences":{}},"methodIdentifiers":{"NFT_WEIGHT()":"65d0720f","OWNER_WEIGHT()":"ca365c23","VALIDATOR_PRICE()":"01992c8f","adminNftContract()":"4547d171","bridgeSettingValidators(uint256)":"8f51b766","challengeContract()":"438031c3","changeBridgeSettings(bytes,bytes[])":"ffe67bf4","currentNftId()":"cf1944ad","depositEth(string,address)":"03d342e2","mintAdminNFT()":"62266e42","onERC1155BatchReceived(address,address,uint256[],uint256[],bytes)":"bc197c81","onERC1155Received(address,address,uint256,uint256,bytes)":"f23a6e61","owner()":"8da5cb5b","processedMessages(bytes32)":"88ba16ab","renounceOwnership()":"715018a6","supportsInterface(bytes4)":"01ffc9a7","threshold()":"42cde4e8","totalWeight()":"96c82e57","transferOwnership(address)":"f2fde38b","validatorWeights(address)":"020b4296","verifyChallenge()":"16de4710","withdrawEth(bytes32,bytes[],address,uint256,bytes)":"74ab6244","withdrawValidators(uint256)":"7923d17b"},"id":19}