{"abi":[{"type":"constructor","inputs":[{"name":"_bridgeContract","type":"address","internalType":"address"}],"stateMutability":"nonpayable"},{"type":"function","name":"balanceOf","inputs":[{"name":"account","type":"address","internalType":"address"},{"name":"id","type":"uint256","internalType":"uint256"}],"outputs":[{"name":"","type":"uint256","internalType":"uint256"}],"stateMutability":"view"},{"type":"function","name":"balanceOfBatch","inputs":[{"name":"accounts","type":"address[]","internalType":"address[]"},{"name":"ids","type":"uint256[]","internalType":"uint256[]"}],"outputs":[{"name":"","type":"uint256[]","internalType":"uint256[]"}],"stateMutability":"view"},{"type":"function","name":"bridgeContract","inputs":[],"outputs":[{"name":"","type":"address","internalType":"address"}],"stateMutability":"view"},{"type":"function","name":"burn","inputs":[{"name":"from","type":"address","internalType":"address"},{"name":"id","type":"uint256","internalType":"uint256"},{"name":"amount","type":"uint256","internalType":"uint256"}],"outputs":[],"stateMutability":"nonpayable"},{"type":"function","name":"burnBatch","inputs":[{"name":"from","type":"address","internalType":"address"},{"name":"ids","type":"uint256[]","internalType":"uint256[]"},{"name":"amounts","type":"uint256[]","internalType":"uint256[]"}],"outputs":[],"stateMutability":"nonpayable"},{"type":"function","name":"isApprovedForAll","inputs":[{"name":"account","type":"address","internalType":"address"},{"name":"operator","type":"address","internalType":"address"}],"outputs":[{"name":"","type":"bool","internalType":"bool"}],"stateMutability":"view"},{"type":"function","name":"mint","inputs":[{"name":"to","type":"address","internalType":"address"},{"name":"id","type":"uint256","internalType":"uint256"},{"name":"amount","type":"uint256","internalType":"uint256"},{"name":"data","type":"bytes","internalType":"bytes"}],"outputs":[],"stateMutability":"nonpayable"},{"type":"function","name":"mintBatch","inputs":[{"name":"to","type":"address","internalType":"address"},{"name":"ids","type":"uint256[]","internalType":"uint256[]"},{"name":"amounts","type":"uint256[]","internalType":"uint256[]"},{"name":"data","type":"bytes","internalType":"bytes"}],"outputs":[],"stateMutability":"nonpayable"},{"type":"function","name":"owner","inputs":[],"outputs":[{"name":"","type":"address","internalType":"address"}],"stateMutability":"view"},{"type":"function","name":"renounceOwnership","inputs":[],"outputs":[],"stateMutability":"nonpayable"},{"type":"function","name":"safeBatchTransferFrom","inputs":[{"name":"from","type":"address","internalType":"address"},{"name":"to","type":"address","internalType":"address"},{"name":"ids","type":"uint256[]","internalType":"uint256[]"},{"name":"amounts","type":"uint256[]","internalType":"uint256[]"},{"name":"data","type":"bytes","internalType":"bytes"}],"outputs":[],"stateMutability":"nonpayable"},{"type":"function","name":"safeTransferFrom","inputs":[{"name":"from","type":"address","internalType":"address"},{"name":"to","type":"address","internalType":"address"},{"name":"id","type":"uint256","internalType":"uint256"},{"name":"amount","type":"uint256","internalType":"uint256"},{"name":"data","type":"bytes","internalType":"bytes"}],"outputs":[],"stateMutability":"nonpayable"},{"type":"function","name":"setApprovalForAll","inputs":[{"name":"operator","type":"address","internalType":"address"},{"name":"approved","type":"bool","internalType":"bool"}],"outputs":[],"stateMutability":"nonpayable"},{"type":"function","name":"setBridgeContract","inputs":[{"name":"_bridgeContract","type":"address","internalType":"address"}],"outputs":[],"stateMutability":"nonpayable"},{"type":"function","name":"supportsInterface","inputs":[{"name":"interfaceId","type":"bytes4","internalType":"bytes4"}],"outputs":[{"name":"","type":"bool","internalType":"bool"}],"stateMutability":"view"},{"type":"function","name":"transferOwnership","inputs":[{"name":"newOwner","type":"address","internalType":"address"}],"outputs":[],"stateMutability":"nonpayable"},{"type":"function","name":"uri","inputs":[{"name":"","type":"uint256","internalType":"uint256"}],"outputs":[{"name":"","type":"string","internalType":"string"}],"stateMutability":"view"},{"type":"event","name":"ApprovalForAll","inputs":[{"name":"account","type":"address","indexed":true,"internalType":"address"},{"name":"operator","type":"address","indexed":true,"internalType":"address"},{"name":"approved","type":"bool","indexed":false,"internalType":"bool"}],"anonymous":false},{"type":"event","name":"OwnershipTransferred","inputs":[{"name":"previousOwner","type":"address","indexed":true,"internalType":"address"},{"name":"newOwner","type":"address","indexed":true,"internalType":"address"}],"anonymous":false},{"type":"event","name":"TransferBatch","inputs":[{"name":"operator","type":"address","indexed":true,"internalType":"address"},{"name":"from","type":"address","indexed":true,"internalType":"address"},{"name":"to","type":"address","indexed":true,"internalType":"address"},{"name":"ids","type":"uint256[]","indexed":false,"internalType":"uint256[]"},{"name":"values","type":"uint256[]","indexed":false,"internalType":"uint256[]"}],"anonymous":false},{"type":"event","name":"TransferSingle","inputs":[{"name":"operator","type":"address","indexed":true,"internalType":"address"},{"name":"from","type":"address","indexed":true,"internalType":"address"},{"name":"to","type":"address","indexed":true,"internalType":"address"},{"name":"id","type":"uint256","indexed":false,"internalType":"uint256"},{"name":"value","type":"uint256","indexed":false,"internalType":"uint256"}],"anonymous":false},{"type":"event","name":"URI","inputs":[{"name":"value","type":"string","indexed":false,"internalType":"string"},{"name":"id","type":"uint256","indexed":true,"internalType":"uint256"}],"anonymous":false}],"bytecode":{"object":"0x608060405234801561001057600080fd5b506040516120e53803806120e583398101604081905261002f916100d8565b60408051602081019091526000815261004781610076565b5061005133610086565b600480546001600160a01b0319166001600160a01b0392909216919091179055610265565b600261008282826101a7565b5050565b600380546001600160a01b038381166001600160a01b0319831681179093556040519116919082907f8be0079c531659141344cd1fd0a4f28419497f9722a3daafe3b4186f6b6457e090600090a35050565b6000602082840312156100ea57600080fd5b81516001600160a01b038116811461010157600080fd5b9392505050565b634e487b7160e01b600052604160045260246000fd5b600181811c9082168061013257607f821691505b60208210810361015257634e487b7160e01b600052602260045260246000fd5b50919050565b601f8211156101a257806000526020600020601f840160051c8101602085101561017f5750805b601f840160051c820191505b8181101561019f576000815560010161018b565b50505b505050565b81516001600160401b038111156101c0576101c0610108565b6101d4816101ce845461011e565b84610158565b6020601f82116001811461020857600083156101f05750848201515b600019600385901b1c1916600184901b17845561019f565b600084815260208120601f198516915b828110156102385787850151825560209485019460019092019101610218565b50848210156102565786840151600019600387901b60f8161c191681555b50505050600190811b01905550565b611e71806102746000396000f3fe608060405234801561001057600080fd5b506004361061010a5760003560e01c8063715018a6116100a2578063cd59658311610071578063cd59658314610239578063e985e9c51461024c578063f242432a14610288578063f2fde38b1461029b578063f5298aca146102ae57600080fd5b8063715018a6146101e6578063731133e9146101ee5780638da5cb5b14610201578063a22cb4651461022657600080fd5b80631f7fdffa116100de5780631f7fdffa1461018d5780632eb2c2d6146101a05780634e1273f4146101b35780636b20c454146101d357600080fd5b8062fdd58e1461010f57806301ffc9a7146101355780630b26cf66146101585780630e89341c1461016d575b600080fd5b61012261011d366004611362565b6102c1565b6040519081526020015b60405180910390f35b6101486101433660046113a2565b61035a565b604051901515815260200161012c565b61016b6101663660046113c6565b6103aa565b005b61018061017b3660046113e1565b610439565b60405161012c9190611440565b61016b61019b36600461159f565b6104cd565b61016b6101ae366004611641565b610509565b6101c66101c13660046116f4565b610555565b60405161012c9190611803565b61016b6101e1366004611816565b610676565b61016b6106b0565b61016b6101fc36600461188d565b6106c4565b6003546001600160a01b03165b6040516001600160a01b03909116815260200161012c565b61016b6102343660046118d5565b6106fa565b60045461020e906001600160a01b031681565b61014861025a366004611911565b6001600160a01b03918216600090815260016020908152604080832093909416825291909152205460ff1690565b61016b610296366004611944565b610709565b61016b6102a93660046113c6565b61074e565b61016b6102bc36600461199c565b6107c7565b60006001600160a01b0383166103315760405162461bcd60e51b815260206004820152602a60248201527f455243313135353a2061646472657373207a65726f206973206e6f742061207660448201526930b634b21037bbb732b960b11b60648201526084015b60405180910390fd5b506000818152602081815260408083206001600160a01b03861684529091529020545b92915050565b60006001600160e01b03198216636cdb3d1360e11b148061038b57506001600160e01b031982166303a24d0760e21b145b8061035457506301ffc9a760e01b6001600160e01b0319831614610354565b6103b26107fc565b6001600160a01b0381166104175760405162461bcd60e51b815260206004820152602660248201527f42726964676520636f6e747261637420616464726573732063616e6e6f74206260448201526565207a65726f60d01b6064820152608401610328565b600480546001600160a01b0319166001600160a01b0392909216919091179055565b606060028054610448906119cf565b80601f0160208091040260200160405190810160405280929190818152602001828054610474906119cf565b80156104c15780601f10610496576101008083540402835291602001916104c1565b820191906000526020600020905b8154815290600101906020018083116104a457829003601f168201915b50505050509050919050565b6004546001600160a01b031633146104f75760405162461bcd60e51b815260040161032890611a09565b61050384848484610856565b50505050565b6001600160a01b0385163314806105255750610525853361025a565b6105415760405162461bcd60e51b815260040161032890611a4a565b61054e8585858585610996565b5050505050565b606081518351146105ba5760405162461bcd60e51b815260206004820152602960248201527f455243313135353a206163636f756e747320616e6420696473206c656e677468604482015268040dad2e6dac2e8c6d60bb1b6064820152608401610328565b600083516001600160401b038111156105d5576105d5611453565b6040519080825280602002602001820160405280156105fe578160200160208202803683370190505b50905060005b845181101561066e5761064985828151811061062257610622611a98565b602002602001015185838151811061063c5761063c611a98565b60200260200101516102c1565b82828151811061065b5761065b611a98565b6020908102919091010152600101610604565b509392505050565b6004546001600160a01b031633146106a05760405162461bcd60e51b815260040161032890611a09565b6106ab838383610b2b565b505050565b6106b86107fc565b6106c26000610cab565b565b6004546001600160a01b031633146106ee5760405162461bcd60e51b815260040161032890611a09565b61050384848484610cfd565b610705338383610dd7565b5050565b6001600160a01b0385163314806107255750610725853361025a565b6107415760405162461bcd60e51b815260040161032890611a4a565b61054e8585858585610eb7565b6107566107fc565b6001600160a01b0381166107bb5760405162461bcd60e51b815260206004820152602660248201527f4f776e61626c653a206e6577206f776e657220697320746865207a65726f206160448201526564647265737360d01b6064820152608401610328565b6107c481610cab565b50565b6004546001600160a01b031633146107f15760405162461bcd60e51b815260040161032890611a09565b6106ab838383610fe1565b6003546001600160a01b031633146106c25760405162461bcd60e51b815260206004820181905260248201527f4f776e61626c653a2063616c6c6572206973206e6f7420746865206f776e65726044820152606401610328565b6001600160a01b03841661087c5760405162461bcd60e51b815260040161032890611aae565b815183511461089d5760405162461bcd60e51b815260040161032890611aef565b3360005b845181101561092e578381815181106108bc576108bc611a98565b60200260200101516000808784815181106108d9576108d9611a98565b602002602001015181526020019081526020016000206000886001600160a01b03166001600160a01b0316815260200190815260200160002060008282546109219190611b37565b90915550506001016108a1565b50846001600160a01b031660006001600160a01b0316826001600160a01b03167f4a39dc06d4c0dbc64b70af90fd698a233a518aa5d07e595d983b8c0526c8f7fb878760405161097f929190611b58565b60405180910390a461054e816000878787876110e5565b81518351146109b75760405162461bcd60e51b815260040161032890611aef565b6001600160a01b0384166109dd5760405162461bcd60e51b815260040161032890611b86565b3360005b8451811015610abd5760008582815181106109fe576109fe611a98565b602002602001015190506000858381518110610a1c57610a1c611a98565b602090810291909101810151600084815280835260408082206001600160a01b038e168352909352919091205490915081811015610a6c5760405162461bcd60e51b815260040161032890611bcb565b6000838152602081815260408083206001600160a01b038e8116855292528083208585039055908b16825281208054849290610aa9908490611b37565b9091555050600190930192506109e1915050565b50846001600160a01b0316866001600160a01b0316826001600160a01b03167f4a39dc06d4c0dbc64b70af90fd698a233a518aa5d07e595d983b8c0526c8f7fb8787604051610b0d929190611b58565b60405180910390a4610b238187878787876110e5565b505050505050565b6001600160a01b038316610b515760405162461bcd60e51b815260040161032890611c15565b8051825114610b725760405162461bcd60e51b815260040161032890611aef565b604080516020810190915260009081905233905b8351811015610c3e576000848281518110610ba357610ba3611a98565b602002602001015190506000848381518110610bc157610bc1611a98565b602090810291909101810151600084815280835260408082206001600160a01b038c168352909352919091205490915081811015610c115760405162461bcd60e51b815260040161032890611c58565b6000928352602083815260408085206001600160a01b038b16865290915290922091039055600101610b86565b5060006001600160a01b0316846001600160a01b0316826001600160a01b03167f4a39dc06d4c0dbc64b70af90fd698a233a518aa5d07e595d983b8c0526c8f7fb8686604051610c8f929190611b58565b60405180910390a4604080516020810190915260009052610503565b600380546001600160a01b038381166001600160a01b0319831681179093556040519116919082907f8be0079c531659141344cd1fd0a4f28419497f9722a3daafe3b4186f6b6457e090600090a35050565b6001600160a01b038416610d235760405162461bcd60e51b815260040161032890611aae565b336000610d2f85611240565b90506000610d3c85611240565b90506000868152602081815260408083206001600160a01b038b16845290915281208054879290610d6e908490611b37565b909155505060408051878152602081018790526001600160a01b03808a1692600092918716917fc3d58168c5ae7397731d063d5bbf3d657854427343f4c083240f7aacaa2d0f62910160405180910390a4610dce8360008989898961128b565b50505050505050565b816001600160a01b0316836001600160a01b031603610e4a5760405162461bcd60e51b815260206004820152602960248201527f455243313135353a2073657474696e6720617070726f76616c20737461747573604482015268103337b91039b2b63360b91b6064820152608401610328565b6001600160a01b03838116600081815260016020908152604080832094871680845294825291829020805460ff191686151590811790915591519182527f17307eab39ab6107e8899845ad3d59bd9653f200f220920489ca2b5937696c31910160405180910390a3505050565b6001600160a01b038416610edd5760405162461bcd60e51b815260040161032890611b86565b336000610ee985611240565b90506000610ef685611240565b90506000868152602081815260408083206001600160a01b038c16845290915290205485811015610f395760405162461bcd60e51b815260040161032890611bcb565b6000878152602081815260408083206001600160a01b038d8116855292528083208985039055908a16825281208054889290610f76908490611b37565b909155505060408051888152602081018890526001600160a01b03808b16928c821692918816917fc3d58168c5ae7397731d063d5bbf3d657854427343f4c083240f7aacaa2d0f62910160405180910390a4610fd6848a8a8a8a8a61128b565b505050505050505050565b6001600160a01b0383166110075760405162461bcd60e51b815260040161032890611c15565b33600061101384611240565b9050600061102084611240565b60408051602080820183526000918290528882528181528282206001600160a01b038b168352905220549091508481101561106d5760405162461bcd60e51b815260040161032890611c58565b6000868152602081815260408083206001600160a01b038b81168086529184528285208a8703905582518b81529384018a90529092908816917fc3d58168c5ae7397731d063d5bbf3d657854427343f4c083240f7aacaa2d0f62910160405180910390a4604080516020810190915260009052610dce565b6001600160a01b0384163b15610b235760405163bc197c8160e01b81526001600160a01b0385169063bc197c81906111299089908990889088908890600401611c9c565b6020604051808303816000875af1925050508015611164575060408051601f3d908101601f1916820190925261116191810190611cfa565b60015b61121057611170611d17565b806308c379a0036111a95750611184611d33565b8061118f57506111ab565b8060405162461bcd60e51b81526004016103289190611440565b505b60405162461bcd60e51b815260206004820152603460248201527f455243313135353a207472616e7366657220746f206e6f6e2d455243313135356044820152732932b1b2b4bb32b91034b6b83632b6b2b73a32b960611b6064820152608401610328565b6001600160e01b0319811663bc197c8160e01b14610dce5760405162461bcd60e51b815260040161032890611dae565b6040805160018082528183019092526060916000919060208083019080368337019050509050828160008151811061127a5761127a611a98565b602090810291909101015292915050565b6001600160a01b0384163b15610b235760405163f23a6e6160e01b81526001600160a01b0385169063f23a6e61906112cf9089908990889088908890600401611df6565b6020604051808303816000875af192505050801561130a575060408051601f3d908101601f1916820190925261130791810190611cfa565b60015b61131657611170611d17565b6001600160e01b0319811663f23a6e6160e01b14610dce5760405162461bcd60e51b815260040161032890611dae565b80356001600160a01b038116811461135d57600080fd5b919050565b6000806040838503121561137557600080fd5b61137e83611346565b946020939093013593505050565b6001600160e01b0319811681146107c457600080fd5b6000602082840312156113b457600080fd5b81356113bf8161138c565b9392505050565b6000602082840312156113d857600080fd5b6113bf82611346565b6000602082840312156113f357600080fd5b5035919050565b6000815180845260005b8181101561142057602081850181015186830182015201611404565b506000602082860101526020601f19601f83011685010191505092915050565b6020815260006113bf60208301846113fa565b634e487b7160e01b600052604160045260246000fd5b601f8201601f191681016001600160401b038111828210171561148e5761148e611453565b6040525050565b60006001600160401b038211156114ae576114ae611453565b5060051b60200190565b600082601f8301126114c957600080fd5b81356114d481611495565b6040516114e18282611469565b80915082815260208101915060208360051b86010192508583111561150557600080fd5b602085015b8381101561152257803583526020928301920161150a565b5095945050505050565b600082601f83011261153d57600080fd5b81356001600160401b0381111561155657611556611453565b60405161156d601f8301601f191660200182611469565b81815284602083860101111561158257600080fd5b816020850160208301376000918101602001919091529392505050565b600080600080608085870312156115b557600080fd5b6115be85611346565b935060208501356001600160401b038111156115d957600080fd5b6115e5878288016114b8565b93505060408501356001600160401b0381111561160157600080fd5b61160d878288016114b8565b92505060608501356001600160401b0381111561162957600080fd5b6116358782880161152c565b91505092959194509250565b600080600080600060a0868803121561165957600080fd5b61166286611346565b945061167060208701611346565b935060408601356001600160401b0381111561168b57600080fd5b611697888289016114b8565b93505060608601356001600160401b038111156116b357600080fd5b6116bf888289016114b8565b92505060808601356001600160401b038111156116db57600080fd5b6116e78882890161152c565b9150509295509295909350565b6000806040838503121561170757600080fd5b82356001600160401b0381111561171d57600080fd5b8301601f8101851361172e57600080fd5b803561173981611495565b6040516117468282611469565b80915082815260208101915060208360051b85010192508783111561176a57600080fd5b6020840193505b828410156117935761178284611346565b825260209384019390910190611771565b945050505060208301356001600160401b038111156117b157600080fd5b6117bd858286016114b8565b9150509250929050565b600081518084526020840193506020830160005b828110156117f95781518652602095860195909101906001016117db565b5093949350505050565b6020815260006113bf60208301846117c7565b60008060006060848603121561182b57600080fd5b61183484611346565b925060208401356001600160401b0381111561184f57600080fd5b61185b868287016114b8565b92505060408401356001600160401b0381111561187757600080fd5b611883868287016114b8565b9150509250925092565b600080600080608085870312156118a357600080fd5b6118ac85611346565b9350602085013592506040850135915060608501356001600160401b0381111561162957600080fd5b600080604083850312156118e857600080fd5b6118f183611346565b91506020830135801515811461190657600080fd5b809150509250929050565b6000806040838503121561192457600080fd5b61192d83611346565b915061193b60208401611346565b90509250929050565b600080600080600060a0868803121561195c57600080fd5b61196586611346565b945061197360208701611346565b9350604086013592506060860135915060808601356001600160401b038111156116db57600080fd5b6000806000606084860312156119b157600080fd5b6119ba84611346565b95602085013595506040909401359392505050565b600181811c908216806119e357607f821691505b602082108103611a0357634e487b7160e01b600052602260045260246000fd5b50919050565b60208082526021908201527f43616c6c6572206973206e6f74207468652062726964676520636f6e747261636040820152601d60fa1b606082015260800190565b6020808252602e908201527f455243313135353a2063616c6c6572206973206e6f7420746f6b656e206f776e60408201526d195c881bdc88185c1c1c9bdd995960921b606082015260800190565b634e487b7160e01b600052603260045260246000fd5b60208082526021908201527f455243313135353a206d696e7420746f20746865207a65726f206164647265736040820152607360f81b606082015260800190565b60208082526028908201527f455243313135353a2069647320616e6420616d6f756e7473206c656e677468206040820152670dad2e6dac2e8c6d60c31b606082015260800190565b8082018082111561035457634e487b7160e01b600052601160045260246000fd5b604081526000611b6b60408301856117c7565b8281036020840152611b7d81856117c7565b95945050505050565b60208082526025908201527f455243313135353a207472616e7366657220746f20746865207a65726f206164604082015264647265737360d81b606082015260800190565b6020808252602a908201527f455243313135353a20696e73756666696369656e742062616c616e636520666f60408201526939103a3930b739b332b960b11b606082015260800190565b60208082526023908201527f455243313135353a206275726e2066726f6d20746865207a65726f206164647260408201526265737360e81b606082015260800190565b60208082526024908201527f455243313135353a206275726e20616d6f756e7420657863656564732062616c604082015263616e636560e01b606082015260800190565b6001600160a01b0386811682528516602082015260a060408201819052600090611cc8908301866117c7565b8281036060840152611cda81866117c7565b90508281036080840152611cee81856113fa565b98975050505050505050565b600060208284031215611d0c57600080fd5b81516113bf8161138c565b600060033d1115611d305760046000803e5060005160e01c5b90565b600060443d1015611d415790565b6040513d600319016004823e80513d60248201116001600160401b0382111715611d6a57505090565b80820180516001600160401b03811115611d85575050505090565b3d8401600319018282016020011115611d9f575050505090565b61066e60208285010185611469565b60208082526028908201527f455243313135353a204552433131353552656365697665722072656a656374656040820152676420746f6b656e7360c01b606082015260800190565b6001600160a01b03868116825285166020820152604081018490526060810183905260a060808201819052600090611e30908301846113fa565b97965050505050505056fea2646970667358221220bd4bd3582c33ae4880459eb40598965cd3e8a68eae1cf6772ed716f88803d64d64736f6c634300081c0033","linkReferences":{}},"methodIdentifiers":{"balanceOf(address,uint256)":"00fdd58e","balanceOfBatch(address[],uint256[])":"4e1273f4","bridgeContract()":"cd596583","burn(address,uint256,uint256)":"f5298aca","burnBatch(address,uint256[],uint256[])":"6b20c454","isApprovedForAll(address,address)":"e985e9c5","mint(address,uint256,uint256,bytes)":"731133e9","mintBatch(address,uint256[],uint256[],bytes)":"1f7fdffa","owner()":"8da5cb5b","renounceOwnership()":"715018a6","safeBatchTransferFrom(address,address,uint256[],uint256[],bytes)":"2eb2c2d6","safeTransferFrom(address,address,uint256,uint256,bytes)":"f242432a","setApprovalForAll(address,bool)":"a22cb465","setBridgeContract(address)":"0b26cf66","supportsInterface(bytes4)":"01ffc9a7","transferOwnership(address)":"f2fde38b","uri(uint256)":"0e89341c"},"id":16}