{"abi":[{"type":"function","name":"_CREATE2","inputs":[{"name":"_diamond","type":"address","internalType":"address"},{"name":"player","type":"address","internalType":"address"}],"outputs":[],"stateMutability":"nonpayable"},{"type":"function","name":"proxiableUUID","inputs":[],"outputs":[{"name":"","type":"bytes32","internalType":"bytes32"}],"stateMutability":"view"},{"type":"function","name":"selfDestruct","inputs":[],"outputs":[],"stateMutability":"nonpayable"}],"bytecode":{"object":"0x608060405234801561001057600080fd5b506105aa806100206000396000f3fe608060405234801561001057600080fd5b50600436106100415760003560e01c806352d1902d14610046578063697dcccb146100645780639cb8a26a14610080575b600080fd5b61004e61008a565b60405161005b9190610133565b60405180910390f35b61007e600480360381019061007991906101b1565b6100b5565b005b6100886100f4565b005b60007f360894a13ba1a3210667c828492db98dca3e2076cc3735a920a3ca505d382bbc60001b905090565b600082826040516100c59061010d565b6100d0929190610200565b604051809103906000f0801580156100ec573d6000803e3d6000fd5b509050505050565b3373ffffffffffffffffffffffffffffffffffffffff16ff5b61034b8061022a83390190565b6000819050919050565b61012d8161011a565b82525050565b60006020820190506101486000830184610124565b92915050565b600080fd5b600073ffffffffffffffffffffffffffffffffffffffff82169050919050565b600061017e82610153565b9050919050565b61018e81610173565b811461019957600080fd5b50565b6000813590506101ab81610185565b92915050565b600080604083850312156101c8576101c761014e565b5b60006101d68582860161019c565b92505060206101e78582860161019c565b9150509250929050565b6101fa81610173565b82525050565b600060408201905061021560008301856101f1565b61022260208301846101f1565b939250505056fe608060405234801561001057600080fd5b5060405161034b38038061034b83398181016040528101906100329190610194565b8173ffffffffffffffffffffffffffffffffffffffff1663a9059cbb828473ffffffffffffffffffffffffffffffffffffffff166370a08231306040518263ffffffff1660e01b815260040161008891906101e3565b602060405180830381865afa1580156100a5573d6000803e3d6000fd5b505050506040513d601f19601f820116820180604052508101906100c99190610234565b6040518363ffffffff1660e01b81526004016100e6929190610270565b6020604051808303816000875af1158015610105573d6000803e3d6000fd5b505050506040513d601f19601f8201168201806040525081019061012991906102d1565b5050506102fe565b600080fd5b600073ffffffffffffffffffffffffffffffffffffffff82169050919050565b600061016182610136565b9050919050565b61017181610156565b811461017c57600080fd5b50565b60008151905061018e81610168565b92915050565b600080604083850312156101ab576101aa610131565b5b60006101b98582860161017f565b92505060206101ca8582860161017f565b9150509250929050565b6101dd81610156565b82525050565b60006020820190506101f860008301846101d4565b92915050565b6000819050919050565b610211816101fe565b811461021c57600080fd5b50565b60008151905061022e81610208565b92915050565b60006020828403121561024a57610249610131565b5b60006102588482850161021f565b91505092915050565b61026a816101fe565b82525050565b600060408201905061028560008301856101d4565b6102926020830184610261565b9392505050565b60008115159050919050565b6102ae81610299565b81146102b957600080fd5b50565b6000815190506102cb816102a5565b92915050565b6000602082840312156102e7576102e6610131565b5b60006102f5848285016102bc565b91505092915050565b603f8061030c6000396000f3fe6080604052600080fdfea2646970667358221220491c6d65cbdf7ec245f1fa293556a7ac98f98254bbb5ec38c809de856a8dce1164736f6c634300080d0033a264697066735822122056bb64525707aee23c44255b09b4845a1f25cfd5eb2ddf34184f7f3f14e3dce264736f6c634300080d0033","linkReferences":{}},"methodIdentifiers":{"_CREATE2(address,address)":"697dcccb","proxiableUUID()":"52d1902d","selfDestruct()":"9cb8a26a"},"id":22}